:100000000C94E9020C9406030C9406030C9406036A
:100010000C9406030C9406030C9406030C9406033C
:100020000C9406030C9406030C94B0180C94EC1773
:100030000C945D120C9406030C9406030C940603B6
:100040000C9406030C9406030C9406030C9406030C
:100050000C9406030C94EB110C9406030C94060309
:100060000C9406030C9406030C9406030C940603EC
:100070000C9406030C9406030C9406030C940603DC
:100080000C9406030C9406030C9406030C940603CC
:100090000C9406030C9406030C9406030C940603BC
:1000A0000C9406030C9406030C9406038F068F062B
:1000B000CD06CD06160736070A09630978076408D6
:1000C000760876082B0A2E0A310A340A370A3A0AC9
:1000D0003D0AAB0DB00DBA0DAE0DB30DB80DB60D9A
:1000E000FD152416C4172416C4176C168F16C417D2
:1000F0008D17A017171D171D2A1D2A1D201D2A1D2B
:100100002A1D2A1D171D171D251D2A1D2A1D251DE7
:100110002E002B002900E100035100001E001400F6
:1001200004001D0035004D001F001A0016001B00C2
:1001300031004C0020000800070006002F002A00B4
:1001400021001500090019003000E200220017000C
:100150000A0005000000E000500001000000000F50
:100160000000E3004F000100000000070000E20073
:1001700023001C000B00110000002961240018005E
:100180000D00100050004B0025000C000E00360042
:1001900051002C00260012000F00370052002800EA
:1001A00027001342330038714F004E002D002E00FF
:1001B0003468E50001510000290001000100010040
:1001C000010000003A001E0220022202010001008C
:1001D0003B001F0221022302010001003C002F020C
:1001E00026022F00010001003D00300227023000EE
:1001F000010001003E00310235003502000001001F
:1002000001000100000001000000010001000100E8
:1002100000000100000001003F00520051002402D4
:10022000000001004000240021001E000100010028
:100230004100250022001F00370001004200260077
:100240002300200027000100430001002E0231009E
:100250002E000100440045000100010001000000E3
:100260000100010001000100010000000100010087
:10027000FB000100010001000100F400F200AC00ED
:10028000010001000100F000F10048000100010040
:100290000100F500F300AB000100010001000100C6
:1002A000FC0001000000010001000100000001004D
:1002B0000000010001000100000001000000010039
:1002C0000100010001000100000001000100010027
:1002D00001000100A9000100010001000100AC00C3
:1002E000AA00B600010001000100AB00A800010057
:1002F00001000100010001000100010001000100F6
:10030000AE000100010000000100010001000451E5
:10031000010000003A00010001000100010001009D
:100320003B00010001000100010001003C00010050
:1003300001000100010001003D0001000100010079
:10034000010001003E000100010001000000010069
:100350000100010000000100000001000100010097
:1003600000000100000001003F0001000100010049
:100370000000010040000100010001000100010037
:1003800041000100010001000100010042000100E4
:100390000100010001000100430001000100010013
:1003A0000100010001000100010001000100000046
:1003B00001000100010001000100000044000100F3
:1003C00001000100010001004500010001000100E1
:1003D00001000100680001000100010001000100AE
:1003E0006900010001000100010001006A00010034
:1003F00001000100000001000100010000000100F7
:1004000000000100010001000000010000000100E7
:1004100001000100010001000000010001000100D5
:1004200001000100010001000100010001000100C4
:1004300001000100010001000100010001000100B4
:1004400001000100010001000100010001000100A4
:10045000010001000100000005010902A10185025F
:100460000901A100050919012905150025019505B6
:10047000750181029501750381010501093009317A
:100480001581257F95027508810609381581257F1C
:10049000950175088106050C0A38021581257F959E
:1004A0000175088106C0C005010980A10185031AF4
:1004B00081002A8300160100260300950175108132
:1004C00000C0050C0901A10185041A01002A9C0243
:1004D000160100269C02950175108100C0050109D6
:1004E00006A1018505050719E029E71500250195F5
:1004F00008750181020507190029EF1500250195EE
:10050000F07501810205081901290595057501910C
:1005100002950175039101C005010906A1010507B6
:1005200019E029E71500250195087501810295015B
:10053000750881010507190029FF150026FF0095A0
:1005400006750881000508190129059505750191B1
:1005500002950175039101C009023B00020100A050
:10056000FA09040000010301010009211101000141
:100570002240000705810308000A09040100010365
:1005800000000009211101000122C00007058203BB
:1005900020000A1201100100000008EDFE071301FF
:1005A000000102030104033000000016034500723D
:1005B0000067006F0064006F007800200045005A5B
:1005C00000000008035A0053004100000004030922
:1005D000040011241FBECFEFDAE0DEBFCDBF12E072
:1005E000A0E0B1E0E8E6F5E402C005900D92AE317E
:1005F000B107D9F723E0AEE1B2E001C01D92A53505
:10060000B207E1F70E947A1A0C94B2220C9400000F
:100610008F929F92AF92BF92CF92DF92EF92FF9212
:100620000F931F93CF93DF93CDB7DEB728970FB605
:10063000F894DEBF0FBECDBFFC01F0801181838135
:100640009481892B09F473C61F3F21F40FEFF01634
:1006500009F46DC66F0185E0DE01119601900D92DF
:100660008A95E1F7F601228189819A81222349F056
:100670000E94BA13082F682F89819A810E9433142F
:1006800003C00E940614082F26E0129FF0011124D7
:1006900034E5039FE00DF11D1124EF0DF11DEE0F68
:1006A000FF1FE05FFE4F0591149109308DE518079B
:1006B00009F040C0F60182818823E1F19091110395
:1006C00081E0890F8770987F853020F4892B809393
:1006D000110302C090931103809111038770FFEF03
:1006E0008F9FC0011124959587959595879599279A
:1006F000909389008093880090938B0080938A0068
:1007000090938D0080938C004091110350911203BF
:1007100060911303709114038FE090E00E943521E3
:100720006091CA027091CB028091CC029091CD026F
:100730000E944C0DF6018281882319F1033EFCE5ED
:100740001F07C1F050F4013E3CE5130781F0023E63
:100750008CE51807B1F481E010C0043E9CE5190750
:1007600059F0053EECE51E0761F484E006C01092E6
:100770000D0305C082E001C083E080930D030E9459
:100780009C0B17FF71C0F6018281882309F46CC0AD
:100790008091D10280931E021092D10280910D03AC
:1007A000813071F048F08230C1F08430E1F486EE9F
:1007B0000E94B91F88E115C082EE0E94CC1F13C0B1
:1007C00083E00E94331F88E10E94CC1F88E10E94D1
:1007D000521F83E00E94281F06C082EE0E94CC1F99
:1007E00087E50E94B91F8FE39CE90197F1F700C0EC
:1007F00000007801E894F7F85CE0A52EB12CC70161
:100800000A2C02C0969587950A94E2F7282F2F703C
:1008100041F0822F90E02A3010F44D9604C00697E4
:1008200002C087E290E00E94B91F94E0A91AB108C3
:10083000ECEFAE16EFEFBE0611F780910D0381309D
:1008400039F040F0823031F0843051F488E206C053
:100850008CE204C082EE0E94521F02C00E94B91FA7
:1008600080911E028093D102033FFCE51F07B1F186
:1008700080F4083D3CE51307C9F0093D8CE51807F5
:10088000C9F1073D9CE51907C1F526E241EE61EE8D
:1008900010C0053FECE51E0749F120F1063F2CE5AD
:1008A000120759F527E245EE66EE03C027E245EE52
:1008B00065EEC60128960FB6F894DEBF0FBECDBF19
:1008C000DF91CF911F910F91FF90EF90DF90CF902C
:1008D000BF90AF909F908F900C94C00E26E241EE97
:1008E00060EEE7CF27E245EE64EEE3CF26E241EE8D
:1008F00062EEDFCF28E241E0DBCFF6018281882380
:1009000009F44AC110921F020230FCE51F0708F4E7
:100910002DC106312CE5120738F098012A5F3C45BD
:100920002730310508F022C10E94E9129093240378
:10093000809323030F303CE5130709F4CFC008F080
:1009400042C008309CE5190709F4A8C0F0F404304F
:10095000FCE51F0709F490C068F402303CE513077A
:1009600009F486C003301C4509F0DFC080912303E1
:100970008260D9C006309CE5190709F487C008F0E9
:1009800089C0809123038860CEC00B30FCE51F072F
:1009900009F495C068F409303CE5130709F482C0F6
:1009A0000A301C4509F0C1C080912303886080C0D3
:1009B0000D309CE5190709F486C008F087C08091C6
:1009C00023038D7FB0C00A3FFCE51F0709F457C021
:1009D00050F502313CE5130709F488C068F4003192
:1009E0009CE5190709F47EC001311C4509F09DC042
:1009F000809123038F7B97C00431FCE51F0709F426
:100A000087C008F479C005311C4509F08EC080917B
:100A1000230382FB222720F991E0922790FB82F9A1
:100A200090FB83F980C00D3F8CE5180709F452C094
:100A300058F40B3FECE51E0729F10C3F1C4509F06B
:100A400074C08091240360C00F3F2CE5120709F4A5
:100A500058C080F101151D4509F067C0809124033D
:100A6000982F909591708E7F892B90FB81F94DC0C6
:100A700080912303816057C08091230319C0809126
:100A800024031BC08091240382603FC08091230314
:100A9000806149C080912303806245C08091230317
:100AA000806441C00E94131F8091230380683BC073
:100AB000846039C0809124038260816026C0809167
:100AC00023038E7F30C08091230319C080912303BC
:100AD000877F29C0809124038D7F17C080912303D5
:100AE0008F7E21C0809123038F7D1DC00E94131F24
:100AF000809123038F7717C080912303877F8B7F9B
:100B000012C0809124038D7F8E7F809324030DC0BB
:100B10000E94131F8091230387FB222720F991E075
:100B2000922790FB87F98093230360912303109110
:100B3000240384E090E00E942321612F81E290E071
:100B40000E94232128960FB6F894DEBF0FBECDBFBA
:100B5000DF91CF911F910F91FF90EF90DF90CF9099
:100B6000BF90AF909F908F900C94131F0631FCE5BF
:100B70001F0799F59091D1029A7A81E009F480E0FB
:100B800080932002811102C069E201C065E38BE31A
:100B900092E00E94B1120DC006311C4509F076C0EA
:100BA000809120028111C1C369E28BE392E00E942F
:100BB000861228960FB6F894DEBF0FBECDBFDF9128
:100BC000CF911F910F91FF90EF90DF90CF90BF904A
:100BD000AF909F908F900C94741301159CE51907AA
:100BE000C1F00E3D1C4509F051C028960FB6F8948F
:100BF000DEBF0FBECDBFDF91CF911F910F91FF9050
:100C0000EF90DF90CF90BF90AF909F908F900C941B
:100C1000FA120E94131FFFEF04E31CE0F1500040A2
:100C20001040E1F700C00000F89481E08093E000FC
:100C300080E28093D8001092C9008FE19EE4019772
:100C4000F1F700C000001DBA109268001CBC10BE75
:100C50001FBA10927A0010926E0010926F001092DC
:100C60007100109272001092C9001092BC0014B86A
:100C700017B81AB81DB810BA1092BC0015B818B839
:100C80001BB81EB811BA0C94003F51C3F601008185
:100C90001181882349F0C8010E94BA13F82E682FE9
:100CA000C8010E94331404C0C8010E940614F82E23
:100CB000B8018F2D0E94A20B182F382FF601258125
:100CC00022952F70028101111092D0028091CE02E4
:100CD0008770A9F0002399F080E2810F883078F0C6
:100CE00082E02F8338879E830E9494148091CE02E5
:100CF0008770EE24E3942F8138859E818111E12C49
:100D0000A92EA2944FE0A422B12CFCE0AF16B104AE
:100D100008F0D9C2F501EA5AFF4F0C947F21892FC0
:100D2000807F9F70F92E882319F0F29480EFF822CB
:100D30000023B9F0FF2009F457C280E2810F883008
:100D400010F0311106C09091D102F92AF092D1022F
:100D500005C09091D002F92AF092D0020E9474133B
:100D600043C2812F38870E94521F3885FF2009F423
:100D7000AAC2105EF094183010F0311106C09091A4
:100D8000D102F922F092D10205C09091D002F9224D
:100D9000F092D0020E94741396C2492F407F892F8F
:100DA0008F70403211F08295807F332319F03130FB
:100DB000E9F025C0002381F03091D202222351F0C6
:100DC000213041F4982F932B391709F47CC290936A
:100DD000D20279C2832B17C0222319F0213009F4E3
:100DE00072C28E830E946E138E811DC0002321F07B
:100DF000223008F068C207C0211165C214C0002368
:100E000029F02111F1C10E94481F5DC2222359F02F
:100E1000193309F0FBC10FEF27EE33E001502040FA
:100E20003040E1F7F1C10E943D1F4DC2292F2695A8
:100E30002695237030E02115310521F02130310550
:100E400059F041C2002319F0812F937002C080E055
:100E500090E00E947A0B40C2002319F0812F93701A
:100E600002C080E090E00E94640B36C20023F9F0DB
:100E7000153F51F0163F71F0143FA9F48091210203
:100E80009091220281600BC08091210290912202F8
:100E9000826005C08091210290912202846090932B
:100EA000220280932102812F0E9483111EC0153FD0
:100EB00051F0163F71F0143FA9F4809121029091F6
:100EC00022028E7F0BC080912102909122028D7FA1
:100ED00005C080912102909122028B7F9093220283
:100EE00080932102812F0E94B9100E944712F4C101
:100EF000892F837009F070C00111ECC1812F829598
:100F000086958770880F880F412F4F7050E060E002
:100F100070E04A015B01082E04C0880C991CAA1CD1
:100F2000BB1C0A94D2F714FF12C00FE010E020E0BF
:100F300030E004C0000F111F221F331F8A95D2F723
:100F4000B901A801409550956095709503C040E0A7
:100F500050E0BA01969596959370892F90E0823073
:100F6000910529F183309105C9F00091D3021091C8
:100F7000D4022091D5023091D602019759F0482928
:100F800059296A297B29CB01BA0160237123822365
:100F900093230AC0802A912AA22AB32ACB01BA013C
:100FA000682979298A299B290E94CE1493C148294E
:100FB00059296A297B298091D3029091D402A0916A
:100FC000D502B091D6028A019B01082719272A274A
:100FD0003B27C901B801E8CF002319F0892F8170A0
:100FE00001C08695882309F475C1812F8295869565
:100FF0008770880F880F412F4F7050E060E070E0DD
:101000004A015B01082E04C0880C991CAA1CBB1C59
:101010000A94D2F714FF12C00FE010E020E030E095
:1010200004C0000F111F221F331F8A95D2F7B90188
:10103000A801409550956095709503C040E050E040
:10104000BA01969596959370892F90E0823091051C
:10105000E9F08330910579F10091CA021091CB0239
:101060002091CC023091CD02019759F0482959299D
:101070006A297B29CB01BA01602371238223932340
:1010800020C0802A912AA22AB32A15C048295929AA
:101090006A297B298091CA029091CB02A091CC024F
:1010A000B091CD028A019B01082719272A273B27E7
:1010B000C901B80106C0CB01BA01682979298A297A
:1010C0009B290E94631406C19F70F92E002339F0FA
:1010D000892F0E94AD14812F0E94481FFBC0812FD1
:1010E0000E943D1F8F2D0E946F14F4C0812F323F4C
:1010F000C9F128F4303F49F0313F79F170C0333FF6
:10110000C1F1343F09F44DC06AC0002311F121112F
:10111000DAC0292F2F7181E090E0A0E0B0E0AC01AF
:10112000BD0104C0440F551F661F771F2A95D2F7D3
:101130008091CA029091CB02A091CC02B091CD02D5
:101140008A019B01082719272A273B27C901B801D3
:1011500025C0223008F0B7C0DCCF002329F0892F4A
:101160008F712EC00023D9F3892F8F710E946F14C5
:10117000AAC0002381F0292F2F7181E090E0A0E028
:10118000B0E0BC01CD0104C0660F771F881F991F16
:101190002A95D2F703C060E070E0CB010E9463148F
:1011A00092C0002381F0192F1F71812F0E94AD146E
:1011B00028E0129FC001112483608093CE02812F0A
:1011C0000E94AD1480C081E02F830E9494142F816F
:1011D000223008F478C082E00E94941474C0002386
:1011E00039F0222309F4BBCF812F0E94CC1F6BC0A2
:1011F000222309F4B9CF893349F43FEF87EE93E016
:10120000315080409040E1F700C00000812F0E94E3
:10121000521F59C0323FB1F028F4303F49F0313FFE
:10122000F9F028C0343FB9F058F0353F71F022C0D2
:10123000002309F451C09091500381E0892708C030
:1012400081E008270093500347C0011145C081E0A9
:101250008093500341C001113FC0109250033CC025
:10126000002329F080914F03882329F329C02223EA
:1012700011F332C080914F032223C1F0882341F043
:101280009091500381E089278093500310924F037F
:10129000812F002319F00E94CC1F1EC00E94521FF4
:1012A00086E0F60111928A95E9F716C08823A1F02D
:1012B000011112C09091500381E08927809350035F
:1012C00010924F0309C0F8E0AF1AB10804E0A0166D
:1012D000B10410F40E94900BEE2049F18091CE02EF
:1012E00080FD25C0F60112828595859585950E9421
:1012F000AD14C6010E9408038091CE0285958595A4
:10130000859528960FB6F894DEBF0FBECDBFDF914E
:10131000CF911F910F91FF90EF90DF90CF90BF90F2
:10132000AF909F908F900C946F1465E33ECC2896FD
:101330000FB6F894DEBF0FBECDBFDF91CF911F91E6
:101340000F91FF90EF90DF90CF90BF90AF909F9064
:101350008F9008959091230392FF0DC0282F28713C
:10136000283019F4877F846006C0282F2471243028
:1013700011F48B7F886093FF0DC0282F28712831CE
:1013800019F4877E846106C0282F2471243111F45A
:101390008B7E88612091240320FF0DC0382F387187
:1013A000383019F4877F816006C0382F31713130B1
:1013B00011F48E7F886021FF0DC0282F28712831FD
:1013C00019F4877E816106C0282F2171213111F423
:1013D0008E7E886194FD877E0895CF93E82F8730B5
:1013E00080F58091070190910801892B09F047C091
:1013F000CE2F64E670E080E40E945F2090930801A5
:1014000080930701892BD1F464E670E082E10E94A9
:10141000B6209093080180930701892B79F481E02D
:1014200090E001C0880FCA95EAF764E670E0809505
:101430000E94B6209093080180930701CF910C94ED
:101440000B2190E0FC013797E730F105C0F4EE592D
:10145000FF4F0C947F21209A289811C0219A299837
:101460000EC0229A2A980BC0239A2B9808C0529A31
:101470005A9805C0539A5B9802C03E9A4698CF91FD
:101480000895CF93873008F03FC080910701909175
:101490000801892B09F041C064E670E080E40E94F5
:1014A0005F209093080180930701892B11F0C0E021
:1014B00027C064E670E083E10E94B62090930801A3
:1014C00080930701892B99F764E670E081E40E941C
:1014D0005F209093080180930701892B41F784E6F0
:1014E00090E00E94E62097FF05C09093080180934A
:1014F0000701DDCFC82FC095109208011092070197
:101500000E940B218C2F0AC09FB18FB1807F8695DE
:1015100086959370892B809501C080E0CF910895C6
:10152000EF92FF920F931F93CF93DF93CDB7DEB768
:1015300067970FB6F894DEBF0FBECDBF4B8B5C8BA9
:101540006D8B7E8B8F8B0E891F8901151105C1F163
:101550005F3F11F44F3FA1F1E42EF12CA1E0B0E088
:10156000042E01C0AA0F0A94EAF7852F90E06623A3
:1015700019F02091500306C09C01235D3D4FF901F5
:1015800020812A232223A9F046E0489F9001499F09
:10159000300D1124F701E20FF31FEE0FFF1FEC5B7C
:1015A000FE4F40815181FC01E35DFD4F9081A92BED
:1015B00006C0FC01E35DFD4FA0958081A823A083B8
:1015C00086E0FE013D96DF01982F1D929A95E9F77E
:1015D0004D875E876F87198B088BDE011796019008
:1015E0000D928A95E1F7CE0107960E942E1D81117A
:1015F00037C086E0FE013796DE01119601900D920C
:101600008A95E1F7FF81E8856A857B85611571051B
:1016100039F1EF3F11F4FF3F19F12091610230E001
:10162000C9010196877099274091920250E0841772
:10163000950779F1F983EA837D836C8396E0929F25
:10164000D001939FB00D1124AE59BD4FFE013196CC
:1016500001900D929A95E1F7809361020E94D8144F
:1016600016E08091920290916102891701F1189F12
:10167000C00111248E599D4F0E942E1D8823B9F060
:101680008091920290E00196877099278093920250
:10169000E8CF0E94131F1092610210929202EBE5B4
:1016A000F2E086E0DF011D928A95E9F7D9CF6796CF
:1016B0000FB6F894DEBF0FBECDBFDF91CF911F9163
:1016C0000F91FF90EF90089520912B0230912C0202
:1016D0008217930771F090932C0280932B02E09174
:1016E0002503F0912603309721F00084F185E02D49
:1016F000099408952091290230912A0282179307B4
:1017000071F090932A0280932902E0912503F091D1
:101710002603309721F00680F781E02D0994089583
:10172000E0912503F0912603309721F00190F0819C
:10173000E02D099480E0089560910D038CE090E025
:101740000C942321CF93DF9326E0729FF0011124A4
:1017500044E5849FE00DF11D1124E60FF11DEE0F0D
:10176000FF1FE05FFE4FC591D491CE01C238D10575
:1017700069F1B0F4C133D10509F475C048F4C93238
:10178000D10509F469C0CA32D10509F473C085C016
:10179000C533D10509F459C0C933D105B9F07DC0AD
:1017A000C33ED10571F138F4C03ED105B1F0C23E5F
:1017B000D10511F172C0C63ED105B9F1C73ED105C0
:1017C000C9F1C43ED10509F068C024C0409123038B
:1017D00040FD5DC041FD5BC060C02091230320FD42
:1017E00050C02091240320FF54C18091230384FD25
:1017F0004EC183EE90E04DC12091230322FF49C1E9
:10180000F4CF8091230382FD3FC08091240380FDAB
:101810003EC0EBCF2091240321FF3BC180912303E5
:1018200084FD35C187EE90E034C12091230323FF6E
:1018300030C1F4CF8091230383FD2CC08091240319
:1018400081FFECCF84EE90E024C12091230325FF9B
:1018500020C189E290E01DC12091230325FF19C119
:1018600085E390E016C12091230326FF12C18AE28E
:1018700090E00FC12091230326FF0BC181E390E08C
:1018800008C189E390E005C182EE90E002C180EEDC
:1018900090E0FFC086EE90E0FCC0C11552E5D50790
:1018A00008F074C0C11521E5D20728F09C2F8827C5
:1018B000816F906AEEC0C83ED10570F5C03ED1057B
:1018C00008F0E7C0C83AD105B8F4C53AD10550F0E0
:1018D0008C2F855AE82FF0E0ED5EFE4F808190E07E
:1018E0009064D7C0C130D10509F4D3C008F4CFC08B
:1018F000249708F4CCC0CDC0CF3BD10508F0C7C0B9
:101900008C2F885AE82FF0E0EE0FFF1FEA5EFE4FA3
:10191000808191819464BDC0C11540E2D40760F418
:10192000C11551E0D50708F0B4C0C03FD10508F497
:10193000AEC0CE019065ADC0C11580E4D80708F4F3
:10194000A6C0C11590E5D90720F4CE019F70906A1A
:10195000A0C04C2F437081E090E002C0880F991F17
:101960004A95E2F79C68AE01F4E056954795FA95E2
:10197000E1F74370942B2C2F2F702695269550E27B
:10198000259F90011124822B932B83C0C11526E53E
:10199000D207E8F5C11545E5D40748F08C2F0E9421
:1019A000AA098F7190E0982F8827906272C0C115A4
:1019B00054E5D50728F09C2F8827846F906A69C06A
:1019C0008C2F86958695AE0143705527C115D3455A
:1019D00078F490E2899F9001112481E090E002C0A8
:1019E000880F991F4A95E2F7822B932B9C6851C070
:1019F00090E2899F9001112481E090E002C0880F5D
:101A0000991F4A95E2F7822B932B9A6842C0C11521
:101A10002AE5D20780F5C11549E5D40718F18C2FC6
:101A20008F700E94AA099E0194E0369527959A9599
:101A3000E1F72F7030E0322F22273069A901482BBF
:101A40000FC0CE0190568115904208F58D2F8F71F1
:101A50000E94AA099E01332730628F71A901582B79
:101A6000CA0117C0C11558E5D50788F09C2F8827F3
:101A7000806F906A0EC0C1158BE5D80740F0C11584
:101A80009CE5D907F0F6CE019927906602C080E068
:101A900090E0DF91CF910895CF92DF92EF92FF9285
:101AA0000F931F936C01EE24FF24C114D104E104B1
:101AB000F10411F0E0E103C06B017C01E0E03327A9
:101AC0002F2D1E2D0D2D011511052105310519F0A4
:101AD000E85F6801790197018601F4E03695279562
:101AE00017950795FA95D1F70115110521053105CF
:101AF00019F0EC5F680179019701860152E0369593
:101B00002795179507955A95D1F7011511052105C8
:101B1000310519F0EE5F680179019701860136956C
:101B2000279517950795012B022B032B09F0EF5FE3
:101B300056985E9825982D9826982E9827982F9835
:101B40000E2F10E0F8013197E730F105A8F4E759BE
:101B5000FF4F0C947F21259A2D9A0EC0259A2D9A1D
:101B6000269A2E9A09C0259A2D9A04C0259A2D9A54
:101B7000269A2E9A279A2F9A1F910F91FF90EF90F5
:101B8000DF90CF90089580E290E0909308018093D9
:101B900007018091260281110EC00E94592081E028
:101BA000809326022FEF83ED90E3215080409040F8
:101BB000E1F700C0000064E670E080E40E945F206E
:101BC0009093080180930701892B09F04EC064E6C9
:101BD00070E080E00E94B620909308018093070196
:101BE000892B09F042C064E670E080E00E94B620D4
:101BF0009093080180930701892BB9F564E670E0A2
:101C00008FE30E94B6209093080180930701892BEF
:101C100061F50E940B2164E670E080E40E945F2081
:101C20009093080180930701892BF9F464E670E032
:101C30008CE00E94B6209093080180930701892BC5
:101C4000A1F464E670E080E00E94B6209093080161
:101C500080930701892B49F464E670E08FE30E94CA
:101C6000B62090930801809307010E940B21809178
:101C700007010895CF93DF9356985E9825982D9885
:101C800026982E9827982F98C8E8D0E08FEF90E0FC
:101C900099838883AAE8B0E011969C938E93ECE830
:101CA000F0E091838083259A2D9A2FEF80E792E0D0
:101CB000215080409040E1F700C00000269A2E9A03
:101CC0002FEF80E792E0215080409040E1F700C084
:101CD0000000279A2F9A2FEF80E792E02150804052
:101CE0009040E1F700C0000025982D982FEF80E785
:101CF00092E0215080409040E1F700C0000026981B
:101D00002E982FEF80E792E0215080409040E1F73D
:101D100000C0000027982F988091110387702FEF43
:101D2000829FC00111249595879595958795992750
:101D30009983888311969C938E9391838083569880
:101D40005E9825982D9826982E9827982F98DF91A1
:101D5000CF91089584B1807F84B985B1807F85B9A2
:101D60008AB1837F8AB98BB1837F8BB93E984698BD
:101D7000089580B38C7080BB81B3836F81BB08955D
:101D80000F931F93CF93DF93C62FD42F022FFC0105
:101D900082818823C9F060931F020E943B129093B6
:101DA00028028093270280E28C0F883008F050C010
:101DB000C77081E001C0880FCA95EAF7DF91CF9123
:101DC0001F910F910C94481F10911F02161330C0E1
:101DD00080912702909128020E941112883C91055F
:101DE00038F5C0E2CD0F1D17B9F080E2810F8830C1
:101DF00040F4177081E001C0880F1A95EAF70E943D
:101E00003D1FC83048F481E09D2F977001C0880FB6
:101E10009A95EAF70E94481F802F0E94B91FC83088
:101E2000B8F4D77081E001C0880FDA95EAF70AC0EC
:101E300080E28C0F883060F4C77081E001C0880FA9
:101E4000CA95EAF7DF91CF911F910F910C943D1F36
:101E5000DF91CF911F910F9108959F92AF92BF9202
:101E6000CF92DF92EF92FF920F931F93CF93DF9366
:101E70008091070190910801892B91F080912502B2
:101E80008F5F8093250281110BC00E94C30D90E0EB
:101E90009093080180930701892B11F40E943A0E58
:101EA00005E113E02CE1E22E23E0F22E6801C0E010
:101EB000912C97E0A92EAC0E8C2F0E94ED098A2D53
:101EC0000E94ED098C2F0E94410AF601908198171B
:101ED00021F08083BB24B39401C0B12C8A2D0E94D1
:101EE000410AF7019081981719F0808381E001C0C1
:101EF00080E0B82A9B280E94AA0ECF5FFFEFCF1A7E
:101F0000DF0A8FEFE81AF80AC73099F60E943B12F1
:101F10006AEF70E00E9457219C01682F8091240293
:101F20008823E9F110922402E0910B03F0910C0355
:101F3000DF011E9690E07BEF8AEFE82EF12C808186
:101F40008B3FA9F0482F50E0681728F0E901C41B27
:101F5000D50BAE0106C06701C41AD50AA601420F0F
:101F6000531F4E31510514F0708301C091E031963A
:101F7000EA17FB0721F790932402911002C09111F8
:101F800010C010922302A0910B03B0910C0390910A
:101F90002402E8E2F3E080E03EE03E0F07C091104B
:101FA000F0CF809123028111ECCF16C0E801299176
:101FB0008E014081421741F04C914B3F21F46C93CC
:101FC000208391E001C081E0119631963E13EECF5F
:101FD0009093240280932302892DDF91CF911F914A
:101FE0000F91FF90EF90DF90CF90BF90AF909F90B8
:101FF00008958091DE020895CF93DF9300D01F9261
:10200000CDB7DEB790910103943019F589837B83B6
:102010006A8382E08093E9008FEF9091E80081501D
:1020200095FD06C095ED9A95F1F700008111F5CF69
:102030008091E80085FF0DC040E050E063E070E073
:10204000CE0101960E94E2148091E8008E77809381
:10205000E8000F900F900F90DF91CF910895CF93EC
:10206000DF93EC010E94721A823011F0843031F457
:10207000BE0184E0DF91CF910C94FC0FDF91CF91F2
:102080000895BC016058710983E00C94FC0FCF9354
:10209000DF93EC010E94721A823011F08430F9F45F
:1020A00082E08093E9009FEF8091E800915085FDE8
:1020B00006C085ED8A95F1F700009111F5CF80916A
:1020C000E80085FF0CC040E050E066E070E0CE0123
:1020D0000E94E2148091E8008E778093E800DF91FF
:1020E000CF910895CF93DF93EC010E94721A823052
:1020F00011F08430D9F580910601882339F0809160
:10210000230387FF03C060E282E002C068E081E051
:102110008093E9008FEF9091E800815095FD06C013
:1021200095ED9A95F1F700008111F5CF8091E800C7
:1021300085FF1CC080910601811105C040E050E080
:1021400068E070E003C070E040E050E0CE010E9423
:10215000E2148091E8008E778093E80080E2FE012F
:10216000AFEDB2E001900D928A95E1F7DF91CF914A
:102170000895803F39F48091390387FF6CC0109235
:10218000390369C0813F29F4809139031816BCF3E3
:1021900062C090913803823F29F497FF5CC010928F
:1021A000380359C0833F19F41916CCF354C0893F42
:1021B00041F480913A0318160CF04DC010923A0386
:1021C0004AC08A3F29F480913A0387FF44C0F6CF82
:1021D0008B3F39F480913B0387FF3DC010923B0356
:1021E0003AC08C3F29F480913B031816BCF333C0EE
:1021F000843F21F4809137038E7F17C0853F21F4FF
:10220000809137038D7F11C0863F21F48091370381
:102210008B7F0BC0873F21F480913703877F05C0F8
:10222000883F31F4809137038F7E8093370313C04A
:102230008D3F21F48091DB028E7F0BC08E3F21F415
:102240008091DB028D7F05C08F3F29F48091DB02F6
:102250008B7F8093DB028091380381110EC08091C7
:10226000390381110AC080913A03811106C080911F
:102270003B03811102C010923C0308958091DB0260
:1022800080FD16C081FD16C082FD18C080913C0300
:10229000882391F0883290F428E0829FC0011124B5
:1022A00068E270E00E946B21862F672B29F007C03F
:1022B00082E0089584E0089581E0089588E008951B
:1022C0008091DB0280FD17C081FD17C082FD19C01F
:1022D00080913C03882399F0823398F423E2829F13
:1022E000C001112462E370E00E946B21862F672BEE
:1022F00049F481E0089588E0089581E1089585E03A
:10230000089583E20895803F21F40E946011819531
:1023100004C0813F29F40E9460118093390308951D
:10232000823F21F40E946011819504C0833F29F40B
:102330000E946011809338030895893F19F40E9428
:102340003E1105C08A3F31F40E943E118195809371
:102350003A0308958B3F21F40E943E11819504C0F9
:102360008C3F29F40E943E1180933B030895843FE3
:1023700021F480913703816017C0853F21F480915B
:102380003703826011C0863F21F480913703846057
:102390000BC0873F21F480913703886005C0883FD8
:1023A00031F48091370380618093370308958D3F26
:1023B00021F48091DB0281600BC08E3F21F480917B
:1023C000DB02826005C08F3F29F48091DB028460CC
:1023D0008093DB02089578941F920F920FB60F92AC
:1023E00011248F939F93AF93BF938091D7029091C5
:1023F000D802A091D902B091DA020196A11DB11DB7
:102400008093D7029093D802A093D902B093DA02B6
:10241000BF91AF919F918F910F900FBE0F901F9022
:102420001895CF92DF92EF92FF920F931F932FB7E1
:10243000F8944091D7025091D8026091D9027091DE
:10244000DA022FBF6A017B01EE24FF248C0120E019
:1024500030E0C016D106E206F30610F441505109EF
:102460009A01281B390BC9011F910F91FF90EF9022
:10247000DF90CF9008952FB7F8948091D702909174
:10248000D802A091D902B091DA022FBF0895E0914D
:102490002503F0912603309749F082E080933603BC
:1024A0000480F581E02D86E393E009950E943B12BC
:1024B00090933E0380933D0308951F920F920FB6B1
:1024C0000F9211248F939F93AF93BF938091270313
:1024D000811113C08091D7029091D802A091D902A6
:1024E000B091DA024196A11DB11D8093D70290935D
:1024F000D802A093D902B093DA02BF91AF919F9115
:102500008F910F900FBE0F901F901895209106018C
:10251000222321F02091230327FD04C0FC013296E1
:10252000089619C0262F2695269526952E31C0F49B
:10253000FC01E20FF11D677081E090E001C0880F9F
:102540006A95EAF78095928189238283089531966E
:10255000E817F90729F020812613F9CF1082F7CF69
:10256000089520910601222321F02091230327FDC5
:1025700005C0FC0132962FEF30E019C0262F2695BA
:10258000269526952E3120F5FC01E20FF11D67708E
:1025900081E090E001C0880F6A95EAF79281892B6B
:1025A000828308952F3F39F03F5F363041F04191EB
:1025B0004613F8CF0DC04111F7CF232FF5CF2F3F92
:1025C00039F0FC01E20FF11D27FDFA9562830895B1
:1025D0000895CF9384E090E00E940F21C82F81E2FC
:1025E00090E00E940F212C2F30E0A901582BCA0146
:1025F000CF9108956FEE7EEF80E090E00E94412140
:1026000060E082E090E00E94232160E083E090E0BF
:102610000E9423211092D3021092D4021092D5026C
:102620001092D60260E084E090E00E94232160E0F6
:1026300081E290E00E94232160E085E090E00E942A
:10264000232160E086E090E00E9423216FEF87E085
:1026500090E00E94232140E050E0BA0188E090E041
:102660000E94352160E08DE090E00E94232140E04F
:1026700050E0BA0188E190E00E94352160E087E1F6
:1026800090E00E94232140E050E0BA018CE190E00C
:102690000E94352160E080E290E00E9423211092A8
:1026A000110310921203109213031092140384E08A
:1026B0008061809311034091110350911203609146
:1026C0001303709114038FE090E00E94352140E0E5
:1026D00050E0BA0183E190E00C9435218091D20260
:1026E00081111092D20208959091D0028091D1026E
:1026F000892B2091CF02982F922B90933B028091AF
:10270000D2028823D9F0892B80933B028091060165
:10271000882331F08091230387FF02C08EE101C03E
:1027200086E0EDE3F2E090E0815028F02191222351
:10273000D9F39F5FF9CF91110E946E13E0912503A9
:10274000F09126033097A9F080910601882359F073
:102750008091230387FF07C080913B0280933C0256
:1027600085E080933B020280F381E02D8BE392E0D1
:1027700009940895BF92CF92DF92EF92FF920F9348
:102780001F93CF93DF938C01C090D302D090D402DB
:10279000E090D502F090D6028091CA029091CB02CF
:1027A000A091CC02B091CD02C82AD92AEA2AFB2AEC
:1027B000CFE1D0E0D701C6010C2E04C0B695A79595
:1027C000979587950A94D2F780FF07C0BC2EB80171
:1027D0008C2F0E94A20B019719F4219758F7B12C66
:1027E0008B2DDF91CF911F910F91FF90EF90DF9094
:1027F000CF90BF900895CF93DF93EC010E94BA135E
:10280000BE010E94A20BDF91CF910895292F220FC4
:10281000920F990F890F682F669566956695982F88
:10282000977085E0689FB001112440E050E080E09F
:10283000FA01E60FF71FED56FD4F208130E0092E1B
:1028400002C0369527950A94E2F721703327042EAB
:1028500001C0220F0A94EAF7822B4F5F5F4F453089
:10286000510531F70895292F220F920F990F890FE3
:10287000A82FA695A695A695877051E001C0550F83
:102880008A95EAF785E0A89FD001112420E030E086
:1028900070E0F901EA0FFB1FED56FD4F4081CB01BF
:1028A000022E02C0969587950A94E2F781709927C7
:1028B000819584278523842780832F5F3F4F253090
:1028C000310539F708950E944C0D6093CA02709348
:1028D000CB028093CC029093CD020C94F81E0F9300
:1028E0001F9341E050E060E070E004C0440F551FCA
:1028F000661F771F8A95D2F7409550956095709521
:102900008091CA029091CB02A091CC02B091CD02ED
:102910008A019B01082319232A233B23C901B801FB
:102920001F910F910C9463142091CE028095822305
:102930008093CE02982F977079F430E0482F082EBC
:10294000000C550B2417350739F08595859585952D
:102950000E946F141092CE0208950F931F9341E0CE
:1029600050E060E070E004C0440F551F661F771F01
:102970008A95D2F78091CA029091CB02A091CC02A5
:10298000B091CD028A019B01082B192B2A2B3B2BDE
:10299000C901B8011F910F910C9463146093D30285
:1029A0007093D4028093D5029093D6020C94F81EB3
:1029B0008091920290916102891719F08F5F877060
:1029C000FBCF0895CF92DF92FF920F931F93CF9387
:1029D000DF931F92CDB7DEB7F82E8B0199830E944B
:1029E0008919998181111CC0CF2CD92E011511058F
:1029F000B1F08091E80085FD0AC08091E8008E77F3
:102A00008093E8000E948919882381F309C0F601A8
:102A100081916F018093F10001501109E7CF80E0AF
:102A20000F90DF91CF911F910F91FF90DF90CF908A
:102A300008951F93CF93DF93CDB7DEB7AA970FB654
:102A4000F894DEBF0FBECDBFE3E0F3E088E08E0F69
:102A50009091F10091938E13FBCF8091040383300A
:102A600009F460C030F4813071F0823009F49AC00A
:102A7000B1C08A3009F486C08B3009F46BC089304C
:102A800009F0A8C020C080910303813A09F0A2C0D8
:102A90008091E800877F8093E80080910703909100
:102AA0000803892B21F460E28FED92E003C060E01F
:102AB00080E090E070E00E940F1A8091E8008B7730
:102AC0008093E80087C080910303813209F082C0BF
:102AD0008091070390910803029708F07BC08091D2
:102AE000E800877F8093E8008091E80082FD05C0C0
:102AF000809101038111F8CF6DC02091F300809186
:102B0000F20090E0922B029729F48091F1008B7FE4
:102B1000813021F48091F1008093DE028091E80001
:102B20008B7754C080910303813A09F053C08091A0
:102B3000070390910803892B09F04CC08091E800AD
:102B4000877F8093E8008091E80080FFFCCF809130
:102B5000060137C0809103038132E1F580910703BC
:102B600090910803892BB1F58091E800877F8093CD
:102B7000E8000E94BB1980910503809306010E9422
:102B8000131F28C080910303813221F58091E80052
:102B9000877F8093E8000E94BB1980910603809391
:102BA000DD0218C080910303813AA1F48091E8000E
:102BB000877F8093E8008091E80080FFFCCF8091C0
:102BC000DD028093F1008091E8008E778093E80029
:102BD0000E94BB198091E80083FFD6C18091030356
:102BE00090910403492F50E04A30510508F0CCC1C0
:102BF000FA01E059FF4F0C947F21803821F0823890
:102C000009F0C2C108C08091FF029091000399238E
:102C100089F082600FC0809107038F70873008F0C1
:102C2000B3C18093E9008091EB0085FB882780F990
:102C30001092E9009091E800977F9093E8008093CC
:102C4000F1001092F10074C1282F2D7F09F09CC172
:102C5000882319F0823061F097C18091050381309B
:102C600009F092C1933009F080E0809300032EC0F8
:102C70008091050381112AC0809107038F702FEF87
:102C8000280F263008F080C18093E9002091EB00E6
:102C900020FF1CC0933021F48091EB00806214C0AF
:102CA0009091EB0090619093EB0021E030E0A9015E
:102CB00002C0440F551F8A95E2F74093EA00109234
:102CC000EA008091EB0088608093EB001092E900AD
:102CD0008091E800877F2FC1811156C110910503B3
:102CE0001F778091E3008078812B8093E3008091AF
:102CF000E800877F8093E8000E94BB198091E8007C
:102D000080FFFCCF8091E30080688093E300111185
:102D100002C082E001C083E08093010335C1805886
:102D2000823008F031C180910503909106038C3DFB
:102D300053E0950779F583E08A838AE289834FB768
:102D4000F894DE01139620E03EE051E2E32FF0E03C
:102D500050935700E49120FF03C0E295EF703F5F6E
:102D6000EF708E2F90E0EA3010F0C79601C0C09649
:102D70008D939D932F5F243149F74FBF8091E800D9
:102D8000877F8093E8006AE270E0CE0101960E949E
:102D90000F1ABDC04091070350910803292F332714
:102DA00023303105B9F06CF42130310509F4FBC052
:102DB0002230310509F0E8C08BE390E0E8E5F5E06A
:102DC00054C02132310509F433C02232310509F4EF
:102DD0003CC0DAC0992781309105D1F05CF4892B91
:102DE00009F0D2C0EDECF5E0E4918E2F90E0EDEC2F
:102DF000F5E038C08230910599F0039709F0C4C01E
:102E0000E5EAF5E0E4918E2F90E0E5EAF5E02AC0EE
:102E1000E3ECF5E0E4918E2F90E0E3ECF5E022C0E6
:102E2000EBEAF5E0E4918E2F90E0EBEAF5E01AC0D2
:102E30004115510509F4BCC04130510509F0A4C049
:102E400089E090E0E3E8F5E010C04115510509F490
:102E5000B4C04130510509F097C080EC90E0E8E53E
:102E6000F4E003C0009709F48FC02091E800277FA9
:102E70002093E8002091090330910A0328173907AD
:102E800008F4C90140E0009789F120910103222351
:102E900009F43DC02530D9F12091E80023FD37C069
:102EA0002091E80022FD2FC02091E80020FFEBCF09
:102EB0004091F3002091F20030E0342B009759F05C
:102EC0002830310540F444914093F1003196019748
:102ED0002F5F3F4FF3CF41E02830310509F040E04C
:102EE0002091E8002E772093E800CDCF4111CDCF7F
:102EF0000AC080910103882351F0853041F0809110
:102F0000E80083FD04C08091E80082FFF2CF809149
:102F1000E8008B778093E80037C08038A9F580916E
:102F2000E800877F8093E800809102038093F1009E
:102F30008091E8008E778093E8000E94BB1924C03E
:102F4000811122C0109105031230F0F48091E80045
:102F5000877F8093E800109302030E94BB19111130
:102F600006C08091E30087FD02C081E001C084E0DB
:102F70008093010342E061EC81E00E94DA1942E2B1
:102F800061EC82E00E94DA198091E80083FF1AC0A8
:102F90008091E800877F8093E8008091EB00806259
:102FA0008093EB000FC082E190E0E3E9F5E05DCFB4
:102FB00089E090E0EAE6F5E058CF80E490E0E8E1CF
:102FC000F5E053CFAA960FB6F894DEBF0FBECDBF83
:102FD000DF91CF911F9108951F920F920FB60F921C
:102FE00011242F933F934F935F936F937F938F930E
:102FF0009F93AF93BF93CF93DF93EF93FF93C091D2
:10300000E900CF708091EC00D82FD17080FDD0E81E
:103010001092E9008091F000877F8093F00078940F
:103020000E9419151092E9008091F0008860809349
:10303000F000CD2BCF70C093E900FF91EF91DF91AD
:10304000CF91BF91AF919F918F917F916F915F9140
:103050004F913F912F910F900FBE0F901F90189599
:10306000E8EDF0E080818E7F80831092E200109284
:10307000DA001092E100A0EEB0E08C9181608C93B8
:1030800080818F77808319BCA7EDB0E08C918E7F13
:103090008C9380818F7E80831092DC020895CF9282
:1030A000DF92EF92FF920F931F93CF93DF93C8EDC0
:1030B000D0E088818F7E8883E7EDF0E080818160B9
:1030C000808384E082BF81E08093DC0288818E7FF0
:1030D000888302EE10E0F80110821092DA0081EE8F
:1030E000C82ED12CF601108288818F778883888141
:1030F0008068888388818F7D888319BC1092010342
:1031000010920203109200031092FF0290EEE92E3B
:10311000F12CF70180818B7F808388818160888397
:1031200042E060E080E00E94DA19F60180818E7F43
:103130008083F801808181608083808188608083C2
:10314000F70180818E7F8083888180618883DF9111
:10315000CF911F910F91FF90EF90DF90CF90089546
:103160001F920F920FB60F9211242F933F934F93FC
:103170005F936F937F938F939F93AF93BF93EF93DF
:10318000FF938091E10082FF09C08091E20082FFFD
:1031900005C08091E1008B7F8093E1008091DA008F
:1031A00080FF2AC08091D80080FF26C08091DA007D
:1031B0008E7F8093DA008091D90080FF18C080E173
:1031C00089BD82E189BD09B400FEFDCF81E0809315
:1031D00001038091DC0281110FC00E9430180E940F
:1031E0004F188091E20084608093E20005C019BC12
:1031F000109201031092DC028091E10080FF17C061
:103200008091E20080FF13C08091E2008E7F809366
:10321000E2008091E20080618093E2008091D8001A
:1032200080628093D80019BC85E08093010380916F
:10323000E10084FF32C08091E20084FF2EC080E173
:1032400089BD82E189BD09B400FEFDCF8091D8001F
:103250008F7D8093D8008091E1008F7E8093E10084
:103260008091E2008F7E8093E2008091E200816095
:103270008093E20080910203882311F084E007C06C
:103280008091E30087FD02C081E001C083E080936C
:1032900001030E94131F0E94900B8091E10083FFA5
:1032A00027C08091E20083FF23C08091E100877FE7
:1032B0008093E10082E080930103109202038091E9
:1032C000E1008E7F8093E1008091E2008E7F809309
:1032D000E2008091E20080618093E20042E060E0E1
:1032E00080E00E94DA198091F00088608093F000FD
:1032F000FF91EF91BF91AF919F918F917F916F91CE
:103300005F914F913F912F910F900FBE0F901F90A3
:1033100018952091E4003091E50095E64091EC008D
:10332000842F817040FF22C08091E80080FD1CC086
:1033300080910103882391F0853091F08091EB001A
:1033400085FD10C04091E4005091E50042175307FD
:1033500029F39A01915011F784E0089582E00895CD
:1033600083E0089581E0089580E008954091E800A9
:1033700042FFDECF08958091030387FF11C0809143
:10338000E80082FD05C0809101038111F8CF11C0D2
:103390008091E8008B770BC080910103882349F06E
:1033A0008091E80080FFF8CF8091E8008E778093CD
:1033B000E8000895982F973058F59093E9009817F2
:1033C00039F07091EC002091ED005091F00003C0B5
:1033D000242F762F50E021FF19C03091EB003E7F63
:1033E0003093EB003091ED003D7F3093ED00309154
:1033F000EB0031603093EB007093EC002093ED0014
:103400005093F0002091EE0027FF07C09F5FD3CFBD
:103410008F708093E90081E0089580E00895209105
:10342000090330910A032617370748F06115710523
:1034300039F42091E8002E772093E80001C0B9010B
:1034400040E061157105A9F120910103222309F4DF
:1034500043C0253009F442C02091E80023FD40C05C
:103460002091E80022FD32C02091E80020FFE9CF42
:103470004091F3002091F20030E0342BFC01CF01A9
:103480006115710559F02830310540F48191809320
:10349000F100615071092F5F3F4FF1CF41E02830BB
:1034A000310509F040E02091E8002E772093E800F4
:1034B000C8CF4111C9CF0AC080910103882361F0B0
:1034C000853061F08091E80083FD0AC08091E800BA
:1034D00082FFF2CF80E0089582E0089583E00895AE
:1034E00081E0089580910103843011F081E0089516
:1034F00082E00895CF93DF93CDB7DEB72A970FB65A
:10350000F894DEBF0FBECDBF84B7877F84BF0FB6F0
:10351000F894A89580916000886180936000109273
:1035200060000FBE90E080E80FB6F89480936100D1
:10353000909361000FBE85B7806885BF85B78068AE
:1035400085BF0E9430180E944F188091E20084606D
:103550008093E2007894809101038823A1F0109178
:10356000E9001F709091EC00892F817090FD80E838
:10357000182B1092E9008091E80083FD0E94191534
:103580001F701093E90082E084BD93E095BD9AEF2F
:1035900097BD80936E000E94C30D90E09093080148
:1035A000809307010E94AA0E0E94B90EA5E1B3E024
:1035B000E8E2F3E01EE0F12EFE0E11921D92FE12E3
:1035C000FCCF8EE090E00E94852180930B039093C6
:1035D0000C03FC010E962BEF2193E817F907E1F796
:1035E00080E090E00E941D218F3E9E4F11F00E94CE
:1035F000FA128CE090E00E940F2190E0A0E0B0E091
:1036000080930D0390930E03A0930F03B0931003C8
:1036100089EA8093800089E08093810024982C9827
:103620003F988AB18F7C8AB96E98479A8BB1806334
:103630008BB9769A8FE090E00E9417216093110376
:1036400070931203809313039093140367703FEFFA
:10365000639FB001112475956795759567957727D8
:10366000709389006093880070938B0060938A0048
:1036700070938D0060938C000E943A0E80E090E081
:103680000E941D218F3E9E4F11F00E94FA1282E08F
:1036900090E00E940F21809340030E94E9129093D2
:1036A00024038093230383E090E00E940F21682F7E
:1036B00070E080E090E00E94CE1489E091E0909369
:1036C000260380932503EE24E394BB24BA9440E1BF
:1036D000A42E52E1952E68E1C62ED12C70E4872EDF
:1036E00080910103853009F043C08091010384304B
:1036F00009F1109227030FB6F894A895C0926000C4
:103700000FBE8092600083B7817F846083BF83B7E0
:10371000816083BF7894889583B78E7F83BF0FB60F
:10372000F894A89580916000886180936000109261
:1037300060000FBE80910003882391F20E94C30DA8
:1037400090E090930801809307010E94AA0E0E94C6
:10375000B90EE8E2F3E01192FE12FDCF0E942D0FA8
:10376000E8E2F3E081918111DFC0FE12FBCFB8CF18
:103770000E942D0FE1E4F3E0A8E2B3E000E010E0E6
:10378000302F9D912191292721F180E07724739496
:10379000472D4223D1F089833A83972181E009F4B0
:1037A00080E08B830E943B128160782F9D838C8305
:1037B00049815A816B818D810E94900AF801EF5BEB
:1037C000FC4F80817826708218C08F5F770C86301E
:1037D000F9F60F5F1F4F0E30110591F6BE82BF82C2
:1037E00018860E943B128160782F9A8789874E81C4
:1037F0005F8168858A850E94900A80913D0390913F
:103800003E030E9411129C0190913C03992321F0E8
:103810002431310508F47CC08091380310913903BC
:1038200081110BC0111194C020913A03211190C055
:1038300020913B0321118CC06BC09F3F19F09F5F0B
:1038400090933C03181624F40E946011809338036F
:103850008091380387FF05C00E9460118195809395
:103860003803111624F40E9460118093390380916B
:10387000390387FF05C00E94601181958093390349
:1038800030913803332301F1209139032223E1F0F1
:1038900045EB3403C0011124892F990F990B009730
:1038A00019F08093380302C0E092380335EB23030C
:1038B000C0011124892F990F990B009719F080935B
:1038C000390302C0E092390380913A03181624F4B8
:1038D0000E943E1180933A0380913A0387FF05C00E
:1038E0000E943E11819580933A0380913B03181604
:1038F00024F40E943E1180933B0380913B0387FF99
:1039000005C00E943E11819580933B030E9447129F
:1039100010913F030E94900B181709F4E1CE0E940A
:10392000900B80933F03DCCEA9BC99BC09B400FE88
:10393000FDCF8091D8008F7D8093D8008091E000EA
:1039400082608093E0008091E00081FDFCCFC8CED2
:103950009F3F09F074CF7CCF8091600282958F7079
:1039600009F054C080915D02882309F44FC0809112
:103970009202A091610260915B0270915C024091A1
:103980005E0250915F02B6E08A1709F43FC090E0F2
:1039900041155105C1F17F3F11F46F3FA1F1B89F6F
:1039A000F001B99FF00D1124EE59FD4F21817213E2
:1039B0002AC02081621327C02281211124C02381C3
:1039C00034812417350710F421503109241B350B9D
:1039D000283C3105C0F4209160022F7020612093B3
:1039E000600226E0289FF001299FF00D1124E9597B
:1039F000FD4F80818F70806180838BE592E00E9413
:103A000008030C94D81401968770BECF08950E94C5
:103A1000FB13292F2F7092959F70E92FF0E03297BA
:103A2000EE30F105B8F4E658FF4F0C947F21803F4B
:103A300099F018F4883E70F40FC0843F59F40CC01C
:103A4000883E50F0813F31F407C0822F86958695DD
:103A50008695089580E0089581E00895BF92CF9201
:103A6000DF92EF92FF920F931F93CF93DF93CDB727
:103A7000DEB761970FB6F894DEBF0FBECDBF8C01E5
:103A800085E0F801DE011D9601900D928A95E1F71F
:103A9000D8013C9111962C9111971296EC901297A7
:103AA0001396CD90DC90149750915B0260915C026C
:103AB00080915E0290915F02009709F44FC16F3FC1
:103AC00019F45F3F09F44AC1B0905D02BB2009F4CC
:103AD000ECC040916002C816D90628F0F601E81B38
:103AE000F90BCF0104C0809590958C0D9D1DFF248E
:103AF000F394883C910548F0F12C407F09F09FC079
:103B00008BE592E00E94080321C1842F807F09F099
:103B100044C0621312C0531310C0E1100EC04F70A6
:103B20004061409360028BE592E00E94080380911F
:103B30006002D80115968C932EC0CD2819F12F3F25
:103B400011F43F3FF9F0FE2CE1101CC0809192026D
:103B50004091610256E0841709F458C090E0589FE4
:103B6000F001599FF00D1124EE59FD4F618126138C
:103B700006C06081361303C06281611103C00196E3
:103B80008770E9CFFE2CEE2009F421C180916002FC
:103B9000816080936002F12C1AC162130AC0531332
:103BA00008C0E11006C080916002D80115968C9380
:103BB000B0C03D872E878D859E850E94071D882376
:103BC000D1F1EE20C1F120916002822F82958F7099
:103BD00090E0029774F080915B0290915C0298876C
:103BE0008F831986DB86CA862C87CE0107960E94B2
:103BF000080386E0F801ABE5B2E001900D928A95EA
:103C0000E1F70E94AC1CFF24F394E1C03D872E87AE
:103C10008D859E850E94FB13292F22952F7030E001
:103C2000223031050CF0C7C09F7009F0C1C0805E22
:103C3000883008F4CCC0C8010E940803E4CF6213A6
:103C400014C0531312C0E11010C080916002F8013B
:103C50008583C8010E94080386E0EBE5F2E0DF01FE
:103C60001D928A95E9F7FB2CB2C03D872E878D8582
:103C70009E850E94071D8823F1F2EE20E1F220913B
:103C80006002822F82958F7090E002970CF4B1CF82
:103C900080915B0290915C029A8389831B82DD8212
:103CA000CC822E83CE010196A2CFC816D90638F059
:103CB000C81AD90AB8ECCB16D10450F007C08095C9
:103CC00090958C0D9D1D883C910510F0F12C3EC007
:103CD000FE2CEE2009F4AFCF621327C0531325C08A
:103CE0002091600220FD18C0822F82958F70482F8E
:103CF00050E04115510581F0F80125834F30510501
:103D000041F08F5F982F9295907F822F8F70892B33
:103D10008583C8010E94080386E0F801ABE5B2E0A4
:103D200001900D928A95E1F752C03D872E878D85CF
:103D30009E850E94071D81115CCF80916002816089
:103D400080936002C8010E94080341C0EBE5F2E0E5
:103D500086E0DF011D928A95E9F739C0EE2009F46B
:103D60006ACF3D872E878D859E850E94071DF82E80
:103D7000882309F460CF86E0F801ABE5B2E001905A
:103D80000D928A95E1F780915B0290915C020E940E
:103D9000FB1392959F70963041F48091500391E00F
:103DA00089278093500390934F030E94AC1C0FC04F
:103DB00081113DCF0CC0243031050CF03CCF9F70F9
:103DC00009F435CFF8019581907F09F030CF8F2D20
:103DD00061960FB6F894DEBF0FBECDBFDF91CF91D5
:103DE0001F910F91FF90EF90DF90CF90BF900895BB
:103DF0001092D0021092CF020E947413E6E3F3E017
:103E000086E0DF011D928A95E9F710923C0310923B
:103E1000DB020E94471280E090E00E947A0B80E073
:103E200090E00C94640B1092D102809106018823DB
:103E300031F08091230387FF02C08EE101C086E04C
:103E4000EDE3F2E0DF011D928A95E9F70C94F81E8C
:103E5000882341F080959091D00289238093D002ED
:103E60000C9474130895882339F09091D002892B13
:103E70008093D0020C9474130895882341F08095A8
:103E80009091D10289238093D1020C9474130895E8
:103E9000882339F09091D102892B8093D1020C9420
:103EA00074130895882309F463C0823869F40E946A
:103EB000900B81FF5DC069E38BE392E00E94B11239
:103EC0000E94741369E30EC0833891F40E94900B32
:103ED00080FF4EC063E58BE392E00E94B1120E9426
:103EE000741363E58BE392E00E9486120C947413C2
:103EF000843869F40E94900B82FF3AC067E48BE338
:103F000092E00E94B1120E94741367E4EBCF9CEF21
:103F1000980F913A10F4682FE5CF90E2980F9830FF
:103F200088F4877021E030E0A90102C0440F551FDA
:103F30008A95E2F7CA0180959091D10289238093F6
:103F4000D102D4CF9BE5980F933020F480E090E02D
:103F50000C947A0B98E5980F973120F480E090E06C
:103F60000C94640B803F20F00E94B9100C9447120F
:103F70000895CF93C82F0E94CC1FC93349F42FEF67
:103F800087EE93E0215080409040E1F700C00000B0
:103F90008C2FCF910C94521F882309F489C082384A
:103FA000B1F40E94900B81FD83C069E38BE392E042
:103FB0000E94B1120E9474132FEF41EE54E0215081
:103FC00040405040E1F700C0000069E317C083386B
:103FD000D9F40E94900B80FD6BC063E58BE392E007
:103FE0000E94B1120E9474138FEF91EE24E0815071
:103FF00090402040E1F700C0000063E58BE392E0D1
:104000000E9486120C9474138438B1F40E94900BB1
:1040100082FD4EC067E48BE392E00E94B1120E94E1
:1040200074134FEF51EE84E0415050408040E1F76F
:1040300000C0000067E4E2CF9CEF980F913A30F4A3
:10404000682F8BE392E00E94B112DCCF90E2980FD0
:10405000983080F4877021E030E0A90102C0440F5D
:10406000551F8A95E2F7CA019091D102892B80935E
:10407000D102C8CFEBE5E80FE33038F4F0E0E451CB
:10408000FE4F808190E00C947A0BE8E5E80FE73171
:1040900048F4F0E0EE0FFF1FE151FE4F8081918167
:1040A0000C94640B803F20F00E9483110C94471203
:1040B00008951092B9008CE08093B8000895EF92B3
:1040C000FF920F931F93CF93DF93182FEB01109262
:1040D000BC0084EA8093BC000E943B127C0190915A
:1040E000BC0097FD0EC0CF3F8FEFD807C1F30E94F1
:1040F0003B128E199F098C179D0788F38EEF9FEF57
:104100002EC09091B900987F983041F09091B900FD
:10411000987F903119F08FEF9FEF21C01093BB0073
:1041200084E88093BC000E943B128C019091BC00FB
:1041300097FD0CC0CF3F8FEFD807C1F30E943B1211
:10414000801B910B8C179D0788F3D8CF8091B90005
:10415000887F883111F08034F1F680E090E0DF91C3
:10416000CF911F910F91FF90EF9008950F931F93A0
:10417000CF93DF93EB018093BB0084E88093BC0076
:104180000E943B128C019091BC0097FD0EC0CF3F66
:104190008FEFD807C1F30E943B12801B910B8C1745
:1041A0009D0788F38EEF9FEF0CC02091B900287F08
:1041B00081E090E0283211F480E090E091958195C3
:1041C0009109DF91CF911F910F9108950F931F9344
:1041D000CF93DF93EC0184E88093BC000E943B12F4
:1041E0008C019091BC0097FD0EC0CF3F8FEFD80798
:1041F000C1F30E943B12801B910B8C179D0788F323
:104200008EEF9FEF03C08091BB0090E0DF91CF91D4
:104210001F910F91089584E98093BC000895F99946
:10422000FECF92BD81BDF89A992780B50895A6E189
:10423000B0E044E050E00C944921A8E1B0E042E055
:1042400050E00C944921262FF999FECF92BD81BDF3
:10425000F89A019700B4021639F01FBA20BD0FB6C4
:10426000F894FA9AF99A0FBE08950396272F0E94A0
:1042700024210E942321252F0E942421242F0C94E5
:1042800024210196272F0E9424210C942321DC0154
:10429000CB01FC01F999FECF06C0F2BDE1BDF89A51
:1042A000319600B40D9241505040B8F70895AA1BC2
:1042B000BB1B51E107C0AA1FBB1FA617B70710F011
:1042C000A61BB70B881F991F5A95A9F78095909543
:1042D000BC01CD01089597FB072E16F4009407D07A
:1042E00077FD09D00E94572107FC05D03EF4909538
:1042F00081959F4F0895709561957F4F0895EE0FBA
:10430000FF1F0590F491E02D0994CF93DF93823045
:10431000910510F482E090E0E0915303F091540392
:1043200020E030E0C0E0D0E0309711F140815181D1
:1043300048175907C0F04817590761F482819381E3
:10434000209719F09B838A832BC09093540380930A
:10435000530326C02115310519F04217530718F4ED
:104360009A01BE01DF01EF010280F381E02DDCCF75
:104370002115310509F1281B390B2430310590F442
:1043800012968D919C9113976115710521F0FB0197
:104390009383828304C09093540380935303FD015D
:1043A000329644C0FD01E20FF31F81939193225096
:1043B00031092D933C933AC020915103309152031F
:1043C000232B41F4209102013091030130935203D9
:1043D00020935103209100013091010121153105F5
:1043E00041F42DB73EB74091040150910501241BC3
:1043F000350BE0915103F0915203E217F307A0F45B
:104400002E1B3F0B2817390778F0AC014E5F5F4F2A
:104410002417350748F04E0F5F1F50935203409307
:1044200051038193919302C0E0E0F0E0CF01DF916E
:10443000CF9108950F931F93CF93DF93009709F4C3
:104440008CC0FC01329713821282009153031091A9
:1044500054030115110581F420813181820F931FCE
:1044600020915103309152032817390779F5F093C1
:104470005203E093510371C0D80140E050E0AE1701
:10448000BF0750F412962D913C911397AD01211561
:10449000310509F1D901F3CF9D01DA01338322837C
:1044A00060817181860F971F8217930769F4EC0171
:1044B00028813981260F371F2E5F3F4F318320839C
:1044C0008A819B8193838283452B29F4F093540343
:1044D000E093530342C01396FC93EE931297ED01C1
:1044E000499159919E01240F351FE217F30771F48A
:1044F00080819181840F951F029611969C938E93D3
:104500008281938113969C938E931297E0E0F0E062
:10451000D80112968D919C911397009719F0F8018C
:104520008C01F6CF8D919C9198012E5F3F4F820FA9
:10453000931F20915103309152032817390769F4D2
:10454000309729F4109254031092530302C013823F
:1045500012821093520300935103DF91CF911F9168
:084560000F910895F894FFCFBC
:10456800000055032000012000F90F721047104188
:10457800102F10818283E200E900EA00B500B6003E
:10458800B700CD008301CC008A0192019401210279
:10459800230224022502260227022A02B300B400BD
:1045A8006F007000000D010D020D030D040D050DC7
:1045B800000C010C020C030C040C050C000B010B85
:1045C800020B030B040B050B000A010A020A030A7B
:1045D800040A050A00090109020903090409050971
:1045E8000008010802080308040805080007010775
:1045F800020703070407050700060106020603066B
:104608000406050600050105020503050405050560
:104618000004010402040304040405040003010364
:10462800020303030403050300020102020203025A
:104638000402050200010101020103010401050150
:10464800000001000200030004000500818283E2EB
:1046580000E900EA00B500B600B700CD008301CC40
:10466800008A0192019401210223022402250226D4
:0E4678000227022A02B300B4006F0070000097
:00000001FF
